{
  "_format": "hh-sol-artifact-1",
  "contractName": "SupplyChain",
  "sourceName": "contracts/spc.sol",
  "abi": [
    {
      "inputs": [
        {
          "internalType": "string",
          "name": "_location",
          "type": "string"
        }
      ],
      "stateMutability": "nonpayable",
      "type": "constructor"
    },
    {
      "anonymous": false,
      "inputs": [
        {
          "indexed": true,
          "internalType": "uint256",
          "name": "productId",
          "type": "uint256"
        },
        {
          "indexed": false,
          "internalType": "string",
          "name": "qrCode",
          "type": "string"
        },
        {
          "indexed": true,
          "internalType": "uint256",
          "name": "owner",
          "type": "uint256"
        },
        {
          "indexed": false,
          "internalType": "string",
          "name": "location",
          "type": "string"
        },
        {
          "indexed": false,
          "internalType": "uint256",
          "name": "quantity",
          "type": "uint256"
        }
      ],
      "name": "ProductManufactured",
      "type": "event"
    },
    {
      "anonymous": false,
      "inputs": [
        {
          "indexed": true,
          "internalType": "uint256",
          "name": "productId",
          "type": "uint256"
        },
        {
          "indexed": true,
          "internalType": "uint256",
          "name": "retailer",
          "type": "uint256"
        },
        {
          "indexed": true,
          "internalType": "string",
          "name": "customer",
          "type": "string"
        },
        {
          "indexed": false,
          "internalType": "uint256",
          "name": "quantity",
          "type": "uint256"
        }
      ],
      "name": "ProductSold",
      "type": "event"
    },
    {
      "anonymous": false,
      "inputs": [
        {
          "indexed": true,
          "internalType": "uint256",
          "name": "productId",
          "type": "uint256"
        },
        {
          "indexed": true,
          "internalType": "uint256",
          "name": "from",
          "type": "uint256"
        },
        {
          "indexed": true,
          "internalType": "uint256",
          "name": "to",
          "type": "uint256"
        },
        {
          "indexed": false,
          "internalType": "uint256",
          "name": "quantity",
          "type": "uint256"
        }
      ],
      "name": "ProductTransferred",
      "type": "event"
    },
    {
      "inputs": [
        {
          "internalType": "string",
          "name": "_qrCode",
          "type": "string"
        },
        {
          "internalType": "uint256",
          "name": "_ownerID",
          "type": "uint256"
        }
      ],
      "name": "checkProduct",
      "outputs": [
        {
          "components": [
            {
              "internalType": "string",
              "name": "qrCode",
              "type": "string"
            },
            {
              "internalType": "uint256",
              "name": "ownerID",
              "type": "uint256"
            },
            {
              "internalType": "string",
              "name": "location",
              "type": "string"
            },
            {
              "internalType": "uint256",
              "name": "quantity",
              "type": "uint256"
            }
          ],
          "internalType": "struct SupplyChain.Product",
          "name": "",
          "type": "tuple"
        }
      ],
      "stateMutability": "view",
      "type": "function"
    },
    {
      "inputs": [],
      "name": "manufactringLocation",
      "outputs": [
        {
          "internalType": "string",
          "name": "",
          "type": "string"
        }
      ],
      "stateMutability": "view",
      "type": "function"
    },
    {
      "inputs": [
        {
          "internalType": "uint256",
          "name": "productId",
          "type": "uint256"
        },
        {
          "internalType": "string",
          "name": "_qrCode",
          "type": "string"
        },
        {
          "internalType": "string",
          "name": "_imageUrl",
          "type": "string"
        },
        {
          "internalType": "uint256",
          "name": "_quantity",
          "type": "uint256"
        }
      ],
      "name": "manufactureProduct",
      "outputs": [],
      "stateMutability": "nonpayable",
      "type": "function"
    },
    {
      "inputs": [],
      "name": "manufacturer",
      "outputs": [
        {
          "internalType": "address",
          "name": "",
          "type": "address"
        }
      ],
      "stateMutability": "view",
      "type": "function"
    },
    {
      "inputs": [
        {
          "internalType": "address",
          "name": "",
          "type": "address"
        }
      ],
      "name": "ownerID",
      "outputs": [
        {
          "internalType": "uint256",
          "name": "",
          "type": "uint256"
        }
      ],
      "stateMutability": "view",
      "type": "function"
    },
    {
      "inputs": [
        {
          "internalType": "uint256",
          "name": "",
          "type": "uint256"
        }
      ],
      "name": "productImage",
      "outputs": [
        {
          "internalType": "string",
          "name": "",
          "type": "string"
        }
      ],
      "stateMutability": "view",
      "type": "function"
    },
    {
      "inputs": [
        {
          "internalType": "uint256",
          "name": "",
          "type": "uint256"
        },
        {
          "internalType": "uint256",
          "name": "",
          "type": "uint256"
        }
      ],
      "name": "products",
      "outputs": [
        {
          "internalType": "string",
          "name": "qrCode",
          "type": "string"
        },
        {
          "internalType": "uint256",
          "name": "ownerID",
          "type": "uint256"
        },
        {
          "internalType": "string",
          "name": "location",
          "type": "string"
        },
        {
          "internalType": "uint256",
          "name": "quantity",
          "type": "uint256"
        }
      ],
      "stateMutability": "view",
      "type": "function"
    },
    {
      "inputs": [
        {
          "internalType": "uint256",
          "name": "productId",
          "type": "uint256"
        },
        {
          "internalType": "string",
          "name": "_customer",
          "type": "string"
        },
        {
          "internalType": "uint256",
          "name": "_quantity",
          "type": "uint256"
        }
      ],
      "name": "sellProduct",
      "outputs": [],
      "stateMutability": "nonpayable",
      "type": "function"
    },
    {
      "inputs": [],
      "name": "signUP",
      "outputs": [
        {
          "internalType": "uint256",
          "name": "",
          "type": "uint256"
        }
      ],
      "stateMutability": "nonpayable",
      "type": "function"
    },
    {
      "inputs": [
        {
          "internalType": "uint256",
          "name": "productId",
          "type": "uint256"
        },
        {
          "internalType": "uint256",
          "name": "toOwnerID",
          "type": "uint256"
        },
        {
          "internalType": "uint256",
          "name": "_quantity",
          "type": "uint256"
        },
        {
          "internalType": "string",
          "name": "location",
          "type": "string"
        }
      ],
      "name": "transferProduct",
      "outputs": [],
      "stateMutability": "nonpayable",
      "type": "function"
    }
  ],
  "bytecode": "0x6080604052600280553480156200001557600080fd5b506040516200149638038062001496833981016040819052620000389162000089565b600080546001600160a01b031916331790556001620000588282620001ef565b505033600090815260066020526040902060019055620002bb565b634e487b7160e01b600052604160045260246000fd5b600060208083850312156200009d57600080fd5b82516001600160401b0380821115620000b557600080fd5b818501915085601f830112620000ca57600080fd5b815181811115620000df57620000df62000073565b604051601f8201601f19908116603f011681019083821181831017156200010a576200010a62000073565b8160405282815288868487010111156200012357600080fd5b600093505b8284101562000147578484018601518185018701529285019262000128565b600086848301015280965050505050505092915050565b600181811c908216806200017357607f821691505b6020821081036200019457634e487b7160e01b600052602260045260246000fd5b50919050565b601f821115620001ea576000816000526020600020601f850160051c81016020861015620001c55750805b601f850160051c820191505b81811015620001e657828155600101620001d1565b5050505b505050565b81516001600160401b038111156200020b576200020b62000073565b62000223816200021c84546200015e565b846200019a565b602080601f8311600181146200025b5760008415620002425750858301515b600019600386901b1c1916600185901b178555620001e6565b600085815260208120601f198616915b828110156200028c578886015182559484019460019091019084016200026b565b5085821015620002ab5787850151600019600388901b60f8161c191681555b5050505050600190811b01905550565b6111cb80620002cb6000396000f3fe608060405234801561001057600080fd5b506004361061009e5760003560e01c806385f6ed3b1161006657806385f6ed3b146101345780638902b64a146101475780639b6da06d1461015d578063a590fbdb1461017d578063ceb20df5146101a057600080fd5b806341085f8c146100a357806374754282146100c1578063751f0054146100ec57806378d2cd521461010c5780637c355fde14610121575b600080fd5b6100ab6101b3565b6040516100b89190610af9565b60405180910390f35b6000546100d4906001600160a01b031681565b6040516001600160a01b0390911681526020016100b8565b6100ff6100fa366004610bb6565b610241565b6040516100b89190610bfb565b61011f61011a366004610c55565b6103f2565b005b61011f61012f366004610ca5565b61052c565b6100ab610142366004610cff565b6106d1565b61014f6106ea565b6040519081526020016100b8565b61014f61016b366004610d18565b60066020526000908152604090205481565b61019061018b366004610d41565b610777565b6040516100b89493929190610d63565b61011f6101ae366004610da0565b6108ba565b600180546101c090610e15565b80601f01602080910402602001604051908101604052809291908181526020018280546101ec90610e15565b80156102395780601f1061020e57610100808354040283529160200191610239565b820191906000526020600020905b81548152906001019060200180831161021c57829003601f168201915b505050505081565b61026c6040518060800160405280606081526020016000815260200160608152602001600081525090565b600060048460405161027e9190610e4f565b9081526040805191829003602090810183205460008181526003835283812088825290925290829020608084019092528154909350829082906102c090610e15565b80601f01602080910402602001604051908101604052809291908181526020018280546102ec90610e15565b80156103395780601f1061030e57610100808354040283529160200191610339565b820191906000526020600020905b81548152906001019060200180831161031c57829003601f168201915b505050505081526020016001820154815260200160028201805461035c90610e15565b80601f016020809104026020016040519081016040528092919081815260200182805461038890610e15565b80156103d55780601f106103aa576101008083540402835291602001916103d5565b820191906000526020600020905b8154815290600101906020018083116103b857829003601f168201915b505050505081526020016003820154815250509150505b92915050565b33600090815260066020908152604080832054868452600383528184208185529092529091206001015481146104435760405162461bcd60e51b815260040161043a90610e6b565b60405180910390fd5b600084815260036020818152604080842085855290915290912001548211156104a65760405162461bcd60e51b8152602060048201526015602482015274496e73756666696369656e74207175616e7469747960581b604482015260640161043a565b600084815260036020818152604080842085855290915282200180548492906104d0908490610ec6565b90915550506040516104e3908490610e4f565b604051809103902081857f0caeb365ed238d0818cea84dabd326a9cbc819cfd0db15ba4c4bc5b9a55baf0a8560405161051e91815260200190565b60405180910390a450505050565b33600090815260066020908152604080832054878452600383528184208185529092529091206001015481146105745760405162461bcd60e51b815260040161043a90610e6b565b600085815260036020818152604080842085855290915290912001548311156105d75760405162461bcd60e51b8152602060048201526015602482015274496e73756666696369656e74207175616e7469747960581b604482015260640161043a565b60008581526003602081815260408084208585529091528220018054859290610601908490610ec6565b909155505060008581526003602081815260408084208885529091528220018054859290610630908490610ed9565b9091555050600085815260036020908152604080832084845290915280822086835291209061065f9082610f3d565b50600085815260036020908152604080832087845290915290206001810185905560020161068d838261101e565b508381867fc3b842e30e68c2d66b865efeb77b184033fca7a7b9b0cb487d7c0b1afcef1a34866040516106c291815260200190565b60405180910390a45050505050565b600560205260009081526040902080546101c090610e15565b336000908152600660205260408120541561073c5760405162461bcd60e51b8152602060048201526012602482015271105b1c9958591e481c9959da5cdd195c995960721b604482015260640161043a565b6002805433600090815260066020526040812082905590919061075e836110d8565b919050555060016002546107729190610ec6565b905090565b600360209081526000928352604080842090915290825290208054819061079d90610e15565b80601f01602080910402602001604051908101604052809291908181526020018280546107c990610e15565b80156108165780601f106107eb57610100808354040283529160200191610816565b820191906000526020600020905b8154815290600101906020018083116107f957829003601f168201915b50505050509080600101549080600201805461083190610e15565b80601f016020809104026020016040519081016040528092919081815260200182805461085d90610e15565b80156108aa5780601f1061087f576101008083540402835291602001916108aa565b820191906000526020600020905b81548152906001019060200180831161088d57829003601f168201915b5050505050908060030154905084565b6000546001600160a01b031633146109295760405162461bcd60e51b815260206004820152602c60248201527f4f6e6c7920746865206d616e7566616374757265722063616e2063616c6c207460448201526b3434b990333ab731ba34b7b760a11b606482015260840161043a565b6040518060800160405280848152602001600181526020016001805461094e90610e15565b80601f016020809104026020016040519081016040528092919081815260200182805461097a90610e15565b80156109c75780601f1061099c576101008083540402835291602001916109c7565b820191906000526020600020905b8154815290600101906020018083116109aa57829003601f168201915b5050509183525050602090810183905260008681526003825260408082206001835290925220815181906109fb908261101e565b506020820151600182015560408201516002820190610a1a908261101e565b506060820151816003015590505083600484604051610a399190610e4f565b9081526040805160209281900383019020929092556000868152600590915220610a63838261101e565b506001847f9927cc0a37bb331f9ed93818b2189e47a7df3a841959476637bb59bccde1f34385600185604051610a9b939291906110f1565b60405180910390a350505050565b60005b83811015610ac4578181015183820152602001610aac565b50506000910152565b60008151808452610ae5816020860160208601610aa9565b601f01601f19169290920160200192915050565b602081526000610b0c6020830184610acd565b9392505050565b634e487b7160e01b600052604160045260246000fd5b600082601f830112610b3a57600080fd5b813567ffffffffffffffff80821115610b5557610b55610b13565b604051601f8301601f19908116603f01168101908282118183101715610b7d57610b7d610b13565b81604052838152866020858801011115610b9657600080fd5b836020870160208301376000602085830101528094505050505092915050565b60008060408385031215610bc957600080fd5b823567ffffffffffffffff811115610be057600080fd5b610bec85828601610b29565b95602094909401359450505050565b602081526000825160806020840152610c1760a0840182610acd565b9050602084015160408401526040840151601f19848303016060850152610c3e8282610acd565b915050606084015160808401528091505092915050565b600080600060608486031215610c6a57600080fd5b83359250602084013567ffffffffffffffff811115610c8857600080fd5b610c9486828701610b29565b925050604084013590509250925092565b60008060008060808587031215610cbb57600080fd5b843593506020850135925060408501359150606085013567ffffffffffffffff811115610ce757600080fd5b610cf387828801610b29565b91505092959194509250565b600060208284031215610d1157600080fd5b5035919050565b600060208284031215610d2a57600080fd5b81356001600160a01b0381168114610b0c57600080fd5b60008060408385031215610d5457600080fd5b50508035926020909101359150565b608081526000610d766080830187610acd565b8560208401528281036040840152610d8e8186610acd565b91505082606083015295945050505050565b60008060008060808587031215610db657600080fd5b84359350602085013567ffffffffffffffff80821115610dd557600080fd5b610de188838901610b29565b94506040870135915080821115610df757600080fd5b50610e0487828801610b29565b949793965093946060013593505050565b600181811c90821680610e2957607f821691505b602082108103610e4957634e487b7160e01b600052602260045260246000fd5b50919050565b60008251610e61818460208701610aa9565b9190910192915050565b60208082526025908201527f596f7520617265206e6f7420746865206f776e6572206f6620746869732070726040820152641bd91d58dd60da1b606082015260800190565b634e487b7160e01b600052601160045260246000fd5b818103818111156103ec576103ec610eb0565b808201808211156103ec576103ec610eb0565b601f821115610f38576000816000526020600020601f850160051c81016020861015610f155750805b601f850160051c820191505b81811015610f3457828155600101610f21565b5050505b505050565b818103610f48575050565b610f528254610e15565b67ffffffffffffffff811115610f6a57610f6a610b13565b610f7e81610f788454610e15565b84610eec565b6000601f821160018114610fb25760008315610f9a5750848201545b600019600385901b1c1916600184901b178455611017565b600085815260209020601f19841690600086815260209020845b83811015610fec5782860154825560019586019590910190602001610fcc565b508583101561100a5781850154600019600388901b60f8161c191681555b50505060018360011b0184555b5050505050565b815167ffffffffffffffff81111561103857611038610b13565b61104681610f788454610e15565b602080601f83116001811461107b57600084156110635750858301515b600019600386901b1c1916600185901b178555610f34565b600085815260208120601f198616915b828110156110aa5788860151825594840194600190910190840161108b565b50858210156110c85787850151600019600388901b60f8161c191681555b5050505050600190811b01905550565b6000600182016110ea576110ea610eb0565b5060010190565b6060815260006111046060830186610acd565b6020838203818501526000865461111a81610e15565b80855260018281168015611135576001811461114f5761117d565b60ff1984168787015282151560051b87018601945061117d565b8a6000528560002060005b8481101561117557815489820189015290830190870161115a565b880187019550505b5050505080935050505082604083015294935050505056fea26469706673582212201a4cc7ca7e5f22cd5fc3cdcaf50f5b759c0ec49c303aa508a838691fd8a1f0de64736f6c63430008180033",
  "linkReferences": {},
  "deployedLinkReferences": {}
}